:020000040800F2
:10000000800E0020D1010008D5010008D7010008AA
:10001000D9010008DB010008DD0100080000000034
:10002000000000000000000000000000DF010008E8
:10003000E101000800000000E3010008E5010008FC
:10004000E7010008E7010008E7010008E7010008F0
:10005000E7010008E7010008E7010008E7010008E0
:10006000E5060008E7010008E7010008E7010008CD
:10007000E7010008E7010008E7010008E7010008C0
:10008000E7010008E7010008E7010008E7010008B0
:10009000E7010008E7010008E7010008E7010008A0
:1000A000E7010008E7010008E7010008E701000890
:1000B000E70100089D0C0008E7010008E7010008BF
:1000C000E7010008E7010008E7010008E701000870
:1000D000E7010008E7010008E7010008E701000860
:1000E000E7010008E7010008E701000800F002F856
:1000F00000F044F80AA090E8000C82448344AAF17E
:100100000107DA4501D100F039F8AFF2090EBAE87B
:100110000F0013F0010F18BFFB1A43F0010318473B
:100120009C3E0000BC3E0000103A24BF78C878C155
:10013000FAD8520724BF30C830C144BF04680C60ED
:10014000704700000023002400250026103A28BF35
:1001500078C1FBD8520728BF30C148BF0B60704739
:10016000642900F09180782900F0CA80002070474F
:100170001FB500F006F91FBD10B510BD00F082FAE2
:100180001146FFF7F5FF03F0C3FD00F0A0FA03B43A
:10019000FFF7F2FF03BC03F073FB00000B49D1F83B
:1001A00000C04A685CF8043B1068184442F8040B2D
:1001B0008C4528BFA1F1DC0C8A4228BFA1F1DC02EA
:1001C000C1F800C04A6020F000407047140C0020C5
:1001D00008480047FEE7FEE7FEE7FEE7FEE7FEE72A
:1001E000FEE7FEE7FEE7FEE703480449024A044B48
:1001F00070470000ED000008800C0020800E0020F9
:10020000800C0020704700000FB4044910B503AA09
:10021000029800F0D7F910BC5DF814FB080000202C
:100220002DE9F0410E460446002020622046E16898
:10023000884730B3252805D0D4E901219047206AAA
:10024000401CF2E7E168204600278847050018D0E7
:10025000A5F14100192802D820354FF40067324635
:10026000294620462760FFF77BFF40B1012804D0D4
:10027000F61D26F007060836D8E7361DD6E72846CD
:10028000DAE7206ABDE8F0812DE9F0410646002456
:1002900010687529314616A510D0AFF300800028EC
:1002A00002DA404213A507E031688A0701D512A59A
:1002B00002E0490704D511A5012401E0AFF3008055
:1002C00000210A2206F1240709E0B0FBF2FCB0FB92
:1002D000F2F302FB1C00303078541846491C002809
:1002E000F3D123462A463046BDE8F04100F010B96C
:1002F000000000002D0000002B0000002000000086
:1003000070B504460D4621461068AFF30080218881
:10031000090502D50F4A7A4402E00E4A7A440E32A9
:10032000002104F1240305E000F00F060009965DAA
:100330005E54491C0028F7D120780023000704D51B
:10034000702D02D009B1022311322046BDE8704061
:1003500000F0DEB8363C00000B4910B5A1F17C027C
:100360000A4CC2E93712372106E000EB104342F88D
:100370002130074B00FB03400B1EA1F10101F4DC0F
:1003800010BD0120E8E70000B40B0020E119D6669B
:10039000CD0D010040EA010310B59B070FD1042ADF
:1003A0000DD310C808C9121F9C42F8D020BA19BA40
:1003B000884201D9012010BD4FF0FF3010BD1AB1A5
:1003C000D30703D0521C07E0002010BD10F8013BFA
:1003D00011F8014B1B1B07D110F8013B11F8014B21
:1003E0001B1B01D1921EF1D1184610BD032A40F209
:1003F000308010F0030C00F0158011F8013BBCF1C7
:10040000020F624498BF11F801CB00F8013B38BFDE
:1004100011F8013BA2F1040298BF00F801CB38BFEC
:1004200000F8013B11F0030300F0DE80083AC0F051
:10043000088051F8043B083A51F804CBA0E80810B2
:10044000F5E7121D5CBF51F8043B40F8043BAFF3E5
:100450000080D20724BF11F8013B11F801CB48BF3F
:1004600011F8012B24BF00F8013B00F801CB48BF75
:1004700000F8012B70474FF000020429C0F01280F1
:1004800010F0030C00F01B80CCF1040CBCF1020F47
:1004900018BF00F8012BA8BF20F8022BA1EB0C011C
:1004A00000F00DB85FEAC17C24BF00F8012B00F812
:1004B000012B48BF00F8012B70474FF0000200B538
:1004C000134694469646203922BFA0E80C50A0E877
:1004D0000C50B1F12001BFF4F7AF090728BFA0E825
:1004E0000C5048BF0CC05DF804EB890028BF40F8F1
:1004F000042B08BF704748BF20F8022B11F0804F33
:1005000018BF00F8012B704770477047704770475D
:100510002DE9F0470D4699469246044600F124081D
:100520000168880604D5E06921F01001216000E02F
:100530000120A84201DD471B00E00027A1697A19CC
:1005400002EB0900081AA0612078C00602D42046F8
:10055000AFF30080002608E0D4E901211AF8060074
:100560009047206A401C761C20624E45F4DB2078C0
:10057000C0060AD52046AFF3008006E0D4E9012189
:1005800030209047206A401C2062381EA7F10107E6
:10059000F4DC07E0D4E9012118F805009047206A4F
:1005A000401C2062281EA5F10105F3DC2046AFF3B4
:1005B00000802078000602D50220BDE8F0870120E7
:1005C000FBE70000074B70B50D467B4400F043F895
:1005D0000446284600F052F810B14FF0FF3070BDCD
:1005E000204670BD2737000010B5203AC0F00B80C0
:1005F000B1E81850203AA0E81850B1E81850A0E827
:100600001850BFF4F5AF5FEA027C24BFB1E8185080
:10061000A0E8185044BF18C918C0BDE810405FEAF0
:10062000827C24BF51F8043B40F8043B08BF70476C
:10063000D20728BF31F8023B48BF11F8012B28BF71
:1006400020F8023B48BF00F8012B704701694A1CA3
:1006500002610878704700B58FB0CDE90131002103
:10066000059105497944CDE9031011466846FFF725
:10067000D7FD0FB000BD0000E5FFFFFF007B00F0DD
:1006800080007047754600F029F8AE4605006946BF
:10069000534620F00700854618B020B5FFF7A4FDAB
:1006A000BDE820404FF000064FF000074FF0000873
:1006B0004FF0000B21F00701AC46ACE8C009ACE8F4
:1006C000C009ACE8C009ACE8C0098D4670470446D3
:1006D000AFF300802046FFF75AFD00000048704746
:1006E0001C0C002010B5042000F002F810BD000022
:1006F00001490860704700001404014070B50546C8
:10070000042440F6FF7000F073F80446042C19D15D
:100710000D48006940F002000B4908610846456138
:10072000006940F04000086140F6FF7000F060F89A
:100730000446012C06D00448006941F6FD710840CA
:1007400001490861204670BD0020024004200B4989
:10075000C96801F0010109B101200EE00749C9682B
:1007600001F0040109B1022007E00449C96801F061
:10077000100109B1032000E004207047002002406E
:100780000348006940F0800001490861704700009B
:100790000020024070B505460E4604240F2000F0EC
:1007A00027F80446042C13D10A48006940F00100E0
:1007B000084908612E800F2000F01AF80446012C29
:1007C00006D00448006941F6FE71084001490861FD
:1007D000204670BD0020024002480349486003489B
:1007E000486070472301674500200240AB89EFCD88
:1007F00070B504460425FFF7A9FF054605E003F0A0
:1008000075F8FFF7A3FF0546641E012D01D1002CEA
:10081000F5D104B90525284670BD2DE9F041024601
:1008200000250026002000230024002791F803C0A3
:100830000CF00F0591F803C00CF0100CBCF1000F88
:1008400003D091F802C04CEA050591F800C0BCF154
:10085000000F31D0146800202BE04FF0010C0CFA8F
:1008600000F3B1F800C00CEA03069E4220D18300D9
:100870004FF00F0C0CFA03F7BC4305FA03FC4CEAEB
:10088000040491F803C0BCF1280F06D14FF0010C0D
:100890000CFA00FCC2F814C00AE091F803C0BCF1E5
:1008A000480F05D14FF0010C0CFA00FCC2F810C043
:1008B000401C0828D1D31460B1F800C0BCF1FF0F70
:1008C00034DD546800202EE000F1080C4FF00108E0
:1008D00008FA0CF3B1F800C00CEA03069E4221D1DD
:1008E00083004FF00F0C0CFA03F7BC4305FA03FC2E
:1008F0004CEA040491F803C0BCF1280F05D100F1C3
:10090000080C08FA0CF8C2F8148091F803C0BCF186
:10091000480F07D100F1080C4FF0010808FA0CF855
:10092000C2F81080401C0828CED35460BDE8F08186
:10093000416170470161704702490143024A1160F9
:10094000704700000000FA050CED00E029B1064AEE
:10095000D2690243044BDA6104E0034AD26982435C
:10096000014BDA61704700000010024029B1064ACD
:1009700012690243044B1A6104E0034A126982437C
:10098000014B1A61704700000010024029B1064A6D
:1009900092690243044B9A6104E0034A92698243DC
:1009A000014B9A61704700000010024029B1064ACD
:1009B000D2680243044BDA6004E0034AD2688243FF
:1009C000014BDA60704700000010024030B5002192
:1009D0000022002400232D4D6D6805F00C0121B18B
:1009E000042905D0082923D105E0294D056022E01E
:1009F000274D05601FE0254D6D6805F47012022536
:100A000005EB9242214D6D6805F480341CB9214DEF
:100A1000554305600BE01D4D6D6805F400351DB1B3
:100A20001C4D5543056002E0194D5543056002E039
:100A3000174D056000BF00BF144D6D6805F0F00153
:100A40000909154D6B5C0568DD4045600F4D6D680B
:100A500005F4E061090A104D6B5C4568DD40856076
:100A60000A4D6D6805F46051C90A0B4D6B5C456811
:100A7000DD40C560054D6D6805F44041890B074DAB
:100A80006B5CC568B5FBF3F5056130BD0010024035
:100A900000127A0000093D006A0000207A00002060
:100AA00021B1028842F04002028004E002884FF641
:100AB000BF731A400280704710B5044614482044A2
:100AC00078B1B0F5806F16D0B0F5784F1DD1012107
:100AD0000803FFF76BFF00214FF48050FFF766FF1C
:100AE00014E001218803FFF741FF00214FF480400B
:100AF000FFF73CFF0AE00121C803FFF737FF0021A1
:100B00004FF40040FFF732FF00E000BF00BF10BD10
:100B100000C8FFBF0246002013890B400BB1012023
:100B200000E00020704710B50022028802F4415214
:100B30000B884C8823438C882343CC8823430C891F
:100B400023434C8923438C892343CC8923431A4371
:100B50000280838B4FF2FF74234083830B8A0382CE
:100B600010BD30B503460C461546002207E0184676
:100B700000F008F824F812009B1C501C82B2AA4214
:100B8000F5DB30BD01460888704700002DE9F05FB5
:100B900080468A461746B8F1006F02D33348804535
:100BA00001D3BDE8F09FFFF717FEA8F1006B4FEAF5
:100BB0009B25CBF34809C9F50074A74200DC3C46ED
:100BC0004DE04FF0006101EB85208A142849FFF7C2
:100BD000C8FF00260BE009EB0600254931F810009C
:100BE0004FF6FF71884200D003E0701C86B2A64227
:100BF000F1DB00BFA6421BDA4FF0006101EB85205C
:100C0000FFF77CFD002608E03AF8160006EB090124
:100C1000174A22F81100701C86B2A642F4DB4FF08E
:100C2000006101EB85208A14114900F023F804E0EB
:100C300022465146404600F01DF8A74200D10FE081
:100C40006D1C4FF000090AEB440AA044381B87B220
:100C5000B7F5007F02DD4FF4007400E03C46B0E7DA
:100C600000BFFFF78DFD00BF9BE7000000000208FA
:100C7000360700202DE9F04105460E4617460024B0
:100C800007E036F814102846FFF784FDAD1C601C01
:100C900084B2BC42F5DBBDE8F08100001F4800884B
:100CA00000F00100C8B34FF6FE701C4908801C48D4
:100CB000407820F01000103019494870084600783C
:100CC000401C087008460078052190FBF1F201FBFA
:100CD000120030B91248407820F02000203010492E
:100CE00048700F4800780A2190FBF1F201FB1200D6
:100CF00030B90B48407820F0400040300849487037
:100D000007480078642808D1002005490870084683
:100D1000407820F080008030487070471004004018
:100D200014000020CA430282704721B1028842F0B9
:100D30000102028004E0028840F2FE331A40028081
:100D4000704702460020138A0B400BB1012000E0DF
:100D50000020704781847047028802F08F02028071
:100D6000CA884B881A4303881A4302808A8882857E
:100D70000A880285054A904202D0054A904201D174
:100D80000A7A02860122828270470000002C01400C
:100D90000034014021B1828942F40052828104E092
:100DA00082894DF6FF731A408281704710B5044660
:100DB0002349601A8C422BD006DC2248204498B18B
:100DC000B0F5806F38D119E0B0F5806F2AD0B0F55A
:100DD0006C4F31D101218803FFF7E8FD00214FF46A
:100DE0008040FFF7E3FD28E001214804FFF7BEFD46
:100DF00000214FF40030FFF7B9FD1EE00121880407
:100E0000FFF7B4FD00214FF48020FFF7AFFD14E0A1
:100E10000121C804FFF7AAFD00214FF40020FFF7CD
:100E2000A5FD0AE001210805FFF7A0FD00214FF410
:100E30008010FFF79BFD00E000BF00BF10BD000069
:100E4000004C004000BCFFBF0246002013880B404E
:100E50000BB1012000E00020704700002DE9F047B1
:100E600086B005460E460024A24600BF00BF0027FC
:100E70002F462C8A4CF6FF700440F08804432C82E5
:100E8000AC894EF6F3100440B0883189084371896B
:100E900008430443AC81AC8A4FF6FF400440B0895C
:100EA0000443AC8201A8FFF791FD1248874202D1AA
:100EB000DDF810A001E0DDF80CA00AEBCA0000EBA1
:100EC0000A1031688900B0FBF1F86420B8FBF0F03B
:100ED00004012009642101FB1089322000EB091074
:100EE000B0FBF1F000F00F0004432C8106B0BDE828
:100EF000F08700000038014010B5034800F0ECFB1B
:100F0000014800F047FF10BD0E00002010B54FF45F
:100F1000A060FFF711FD4FF4165002F05FFE02F0E3
:100F20001BFD02F097FD334802F0E4F8002132483F
:100F300000F05CFD31A0FFF767F93348018833A06A
:100F4000FFF762F9002452E004EBC40000EB041048
:100F5000344901EB40004068002846D004EBC4004F
:100F600000EB041001EB4000C07803283DDA214675
:100F70002DA0FFF749F904EBC40000EB0410294A47
:100F800012F8100000F001012BA0FFF73DF904EB6F
:100F9000C40000EB0410234A12F81000C0F3420111
:100FA00028A0FFF731F904EBC40000EB04101D4A40
:100FB00002EB40000088010925A0FFF725F904EBAA
:100FC000C40000EB0410174A02EB4000C17823A0D4
:100FD000FFF71AF904EBC40000EB0410114A02EB0E
:100FE0004000416820A0FFF70FF9601CC4B2202C1C
:100FF000AADB10BD000000200E000020696E69749D
:10100000206F6B0A000000001800002073617665F5
:10101000206D616368696E65206E756D3A25640D9B
:101020000A000000A0000020706F736974696F6E81
:101030003A2564200A000000747970653A25780D1D
:101040000A000000736F72743A25780D0A000000E0
:1010500064657461696C3A25780D0A007374617473
:1010600075733A25780D0A00534E3A25780D0A001B
:1010700070B506460D4650484078002875D14E4858
:10108000807800EBC00101EB00104C4901EB4000FF
:1010900045604B480068FFF75FF9002431E0FFF737
:1010A0007DF8FD2190FBF1F201FB1200C01CC1B2E2
:1010B0004148807800EBC00202EB00103F4A02EB8F
:1010C0004000083001553C48807800EBC00101EB3E
:1010D0000010114601EB40000830015D02F10800EC
:1010E00001553548807800EBC00202EB0010334A0E
:1010F00002EB40000830015D32A0FFF785F8601C6C
:10110000C4B20A2CCBDB2C48807800EBC00303EB85
:1011100000102A4B03EB40004268274881782BA03F
:10112000FFF772F80021304601F0DAF822488078A3
:1011300000EBC00101EB0010204901EB40004268C8
:101140009621304601F0C2FC80B900201A49897806
:1011500001EBC10202EB0111184A02EB41014860A8
:1011600022A0FFF751F8012070BD20E02748008839
:10117000401C2649088001222548FFF707FD0E4A3A
:10118000927802EBC20303EB02120C4B03EB420119
:10119000094A927802EBC2021D4B03EB4202901CFB
:1011A0000922FFF7F3FC1BA0FFF72EF802E01EA0B8
:1011B000FFF72AF80020D7E70E000020A00000204B
:1011C000040000206B65793A257820006164642072
:1011D0006465766963652D706F736974696F6E3AC3
:1011E00025642C534E3A25780A000000616464207F
:1011F0006973206661696C2120706C65617365207C
:1012000074727920616761696E210A0018000020FC
:1012100000FC010861646420646576696365206987
:1012200073204F4B0A00000064657669636520698E
:1012300073206578697374210A00000070B5054653
:101240004C48407800286ED1284601F059FE4A48A3
:101250000068FFF781F8002431E0FEF79FFFFD21D1
:1012600090FBF1F201FB1200C01CC1B24148807832
:1012700000EBC00202EB0010404A02EB40000830D5
:1012800001553C48807800EBC00101EB001011468D
:1012900001EB40000830015D02F1080001553548BE
:1012A000807800EBC00202EB0010344A02EB4000F1
:1012B0000830015D32A0FEF7A7FF601CC4B20A2C03
:1012C000CBDB2C48807800EBC00303EB00102B4BEA
:1012D00003EB40004268274881782BA0FEF794FF7B
:1012E0000021284600F0FCFF2248807800EBC00176
:1012F00001EB0010214901EB40004268962128468D
:1013000001F0E4FB80B900201A49897801EBC102A1
:1013100002EB0111194A02EB4101486022A0FEF7DD
:1013200073FF012070BD20E027480088401C26493B
:10133000088001222548FFF729FC0E4A927802EB2B
:10134000C20303EB02120D4B03EB4201094A9278F0
:1013500002EBC2021D4B03EB4202901C0922FFF775
:1013600015FC1BA0FEF750FF02E01EA0FEF74CFF8D
:101370000020D7E70E00002004000020A00000207D
:101380006B65793A2578200061646420646576692C
:1013900063652D706F736974696F6E3A25642C53A1
:1013A0004E3A25780A000000616464206973206663
:1013B00061696C2120706C6561736520747279209D
:1013C000616761696E210A001800002000FC0108B5
:1013D00061646420646576696365206973204F4B9E
:1013E0000A0000006465766963652069732065788A
:1013F000697374210A00000010B504462D48407836
:10140000012852D12B48807800EBC00303EB001079
:10141000294B03EB400042682648817827A0FEF75D
:10142000F3FE0121204600F05BFF2248807800EBAC
:10143000C00101EB0010204901EB4000426864212B
:10144000204601F043FB20B924A0FEF7DDFE012079
:1014500010BD00201749897801EBC10202EB011190
:10146000154A02EB4101486024480088401E234988
:10147000088001222248FFF789FB0E4A927802EB8E
:10148000C20303EB02120C4B03EB4201094A9278B0
:1014900002EBC2021A4B03EB4202901C0922FFF737
:1014A00075FB18A0FEF7B0FE02E01BA0FEF7ACFE35
:1014B0000020CDE70E000020A000002064656C2015
:1014C0006465766963652D706F736974696F6E3AD0
:1014D00025642C534E3A25780A00000064656C2080
:1014E0006973206661696C2120706C656173652089
:1014F00074727920616761696E210A00180000200A
:1015000000FC010864656C20646576696365206988
:1015100073204F4B0A00000074686973206465767D
:10152000696365206973206E6F74206578697374D0
:101530002121212D6E6F742064656C0A000000006B
:1015400070B5054649484078002847D1284601F043
:10155000D7FC00240FE04548807800EBC00202EB86
:101560000010434A02EB40000830015D41A0FEF745
:101570004BFE601CC4B20A2CEDDB40480088401CC6
:101580003E49088001223E48FFF700FB374A927827
:1015900002EBC20303EB0212354B03EB4201334A69
:1015A000927802EBC202364B03EB4202901C0922F6
:1015B000FFF7ECFA2D48807800EBC00303EB001036
:1015C0002B4B03EB40004268284881782DA0FEF7A2
:1015D0001BFE0221284600F083FE45E0284601F06C
:1015E0008FFC00240FE02148807800EBC00202EB62
:1015F00000101F4A02EB40000830015D1DA0FEF7FD
:1016000003FE601CC4B20A2CEDDB01221B491C48FE
:10161000FFF7BCFA154A927802EBC20303EB021201
:10162000134B03EB4201114A927802EBC202144BB6
:1016300003EB4202901C0922FFF7A8FA0B488078BE
:1016400000EBC00303EB0010094B03EB40004268C2
:10165000064881780BA0FEF7D7FD0221284600F04E
:101660003FFE10A0FEF7D0FD002070BD0E00002050
:10167000A00000206B65792D25782000180000203F
:1016800000FC01080A2061646420686F73742D7087
:101690006F736974696F6E3A2025642C534E3A2536
:1016A000780A00007468697320686F737420697326
:1016B0002065786973742121212D62757420692059
:1016C00077696C6C2061646420686F737420616753
:1016D00061696E0A0000000010B50446064802F079
:1016E0006BF80648807C28B9FF200449887420469E
:1016F00000F09AFC10BD000000000020E006002071
:101700002DE9F04781460E4600270025A846002017
:101710001D4948701F242EE0B04604EBC40000EBC6
:1017200004101A4901EB4000406820B92746002008
:10173000154948701DE004EBC40000EB0410134988
:1017400001EB40004068404512D1254601200E497A
:10175000487005EBC50000EB05100C4A02EB400099
:1017600041682A460AA0FEF74FFD2846BDE8F087EB
:1017700000BF601EC4B2002CCEDC39460DA0FEF7BF
:1017800043FD3846F2E700000E000020A0000020D4
:101790004D6368696E652069732065786973742C80
:1017A000534E3A257820706F736974696F6E3A25CD
:1017B000640A00004D6368696E65206973206E6F6E
:1017C000742065786973742C6D696E5F656D7074D3
:1017D000795F6D616368696E655F706F7369746965
:1017E0006F6E3A2025640A002DE9F04180460026FC
:1017F000002500270020264948701F243FE0254887
:1018000090F839000106234890F83A0001EB0041B6
:10181000204890F83B0001EB00211E4890F83C0066
:101820000F1804EBC40000EB04101B4901EB40004F
:10183000406820B926460020154948701DE004EB99
:10184000C40000EB0410144901EB40004068B842AA
:1018500012D1254601200E49487005EBC50000EB6A
:1018600005100D4A02EB400041682A460BA0FEF726
:10187000CBFC2846BDE8F08100BF601EC4B2002C3E
:10188000BDDC31460EA0FEF7BFFC3046F2E700009B
:101890000E000020E0060020A00000204D636869D3
:1018A0006E652069732065786973742C534E3A25F0
:1018B0007820706F736974696F6E3A25640A00004E
:1018C0004D6368696E65206973206E6F742065785A
:1018D0006973742C6D696E5F656D7074795F6D618D
:1018E0006368696E655F706F736974696F6E3A20C3
:1018F00025640A0010B504462448407801283BD1ED
:101900002248807800EBC00303EB0010204B03EB70
:10191000400042681D4881781EA0FEF775FC022138
:10192000204600F0DDFC00201849897801EBC10257
:1019300002EB0111164A02EB410148601C48008885
:10194000401E1B49088001221A48FFF71FF90F4A61
:10195000927802EBC20303EB02120D4B03EB420140
:101960000A4A927802EBC202124B03EB4202901C2D
:101970000922FFF70BF906E00221204600F0B0FC37
:101980000DA0FEF741FC002010BD00000E0000205D
:10199000A000002064656C20686F73742D706F73F5
:1019A0006974696F6E3A25642C534E3A25780A00A3
:1019B0001800002000FC01087468697320686F73C8
:1019C00074206973206E6F742065786973742121A7
:1019D0002162757420692077696C6C2064656C20C5
:1019E000686F737420616761696E0A0070B505469F
:1019F0000E464FF4C8613248FEF73DFD304800788E
:101A000020F00100401C2E4908702E484860002438
:101A100004E02B4808300455601CC4B20A2CF8DBE3
:101A20002948FFF7AFF82949088008460088202890
:101A300003DC08460088012826DA25A0FEF7E4FB2F
:101A400000201F49C87001202049088001221E483B
:101A5000FFF79CF8002411E004EBC40202EB04122F
:101A6000174B03EB420104EBC402174B03EB42029A
:101A7000901C0922FFF78AF8601CC4B2202CEBDB13
:101A800018A0FEF7C1FB15E0002411E004EBC4022E
:101A900002EB04120A4B03EB420104EBC4020A4BB3
:101AA00003EB4202901C0922FFF75BF8601CC4B2F2
:101AB000202CEBDB0020104908701049087070BD25
:101AC000A00000200100001000FC01081800002008
:101AD0006E6F2073617665206D616368696E650A5B
:101AE0000000000073797374656D20646174612077
:101AF000696E69740A000000160000200E000020C4
:101B000070B58AB00646202102A8FEF7D6FCFF2059
:101B10008DF808008DF809008DF80A008DF80B008B
:101B20001F2443E004EBC40000EB0410434901EB25
:101B300040004068002837D004EBC40000EB0410DC
:101B400001EB4000426821463DA0FEF75DFB42A04C
:101B5000FEF75AFB4C48847004EBC40000EB041001
:101B6000364901EB40004068000E8DF8080004EB98
:101B7000C40000EB041001EB40004068000C8DF83D
:101B8000090004EBC40000EB041001EB4000808866
:101B9000000A8DF80A0004EBC40000EB041001EB0E
:101BA000400000798DF80B00601EC4B2002CB9DC37
:101BB00022488088000A8DF80C00204800798DF8B2
:101BC0000D001E488088000A8DF80E001B48007921
:101BD0008DF80F0001208DF81000FF208DF8110006
:101BE0008DF812008DF813008DF814008DF8150093
:101BF0002548807828B104AB062204A9304601F0BC
:101C000009F90E2202A9304601F03AFA0546280ADF
:101C10008DF81600E8B28DF81700102102A801F027
:101C200031FE1AA0FEF7F0FA80200023102202A94C
:101C30000090194801F086FC0AB070BDA000002099
:101C400073656E642D706F736974696F6E2D256492
:101C50002D534E2564200A0074686973206973202F
:101C60006D65616E732077652066696E64206F6EA6
:101C700065206D616368696E65206173206F6E65B4
:101C8000204453540A0000000E0000207465737451
:101C90002073656E640A00000000002070B50446E1
:101CA0000020002305E011F8016B3518E8B25D1C37
:101CB000EBB29342F7DB70BD70B5064600250324F6
:101CC00026E02148005D30381F4908550846005D70
:101CD00036280CDC0846005D312808DB0846005D2C
:101CE0002738C4F10A018900884005440EE01648EF
:101CF000005D09280ADC1448005D002806DB124854
:101D0000005DC4F10A01890088400544601CC4B22A
:101D10000B2CD6DB1DB129460CA0FEF775FA29461F
:101D20003046FFF7EDFC10498870084640780128DE
:101D300003D10EA0FEF768FA70BD29463046FFF7C2
:101D400097F900BFF8E70000800000200A796F755E
:101D50002077616E7420746F2061646420534E3A62
:101D60002578200A000000000E00002074686973C6
:101D7000206465766963652069732065786973748A
:101D80002C6E6F74206E65656420746F20616464CE
:101D90000A000000F0B589B007460024002501F0D4
:101DA000BDFF6F480078022876D16E480078FA2887
:101DB00056D16C484078401CC2B26A493846FFF799
:101DC0006DFF0446214668A0FEF71EFA654840787C
:101DD000401C6449085CA04204D066A0FEF714FAD7
:101DE00009B0F0BDAA222846691CCDB201A90A5447
:101DF0002846691CCDB201A90A54F5222846691C5F
:101E0000CDB201A90A54012608E05648825D284651
:101E1000691CCDB201A90A54701CC6B25148407861
:101E2000401CB042F1DC4F484078401CC2B20DF17A
:101E300006013846FFF732FF04464A484078C01C86
:101E400001A90C5447484078001DC1B201A801F017
:101E500039FF01204B498870384600F0C7FB3AE053
:101E600040480078552836D13E488078801CC2B260
:101E70003C493846FFF712FF0446214642A0FEF7D0
:101E8000C3F938488078801C3649085CA04204D0E9
:101E900038A0FEF7B9F91EE020E0324840788028EB
:101EA00002D081280CD107E038A0FEF7ADF902215D
:101EB000384600F015FA0DE037A0FEF7A5F909E065
:101EC00039A0FEF7A1F901202E498870384600F0AC
:101ED0008DFB00BF00BF00202149087020484078DA
:101EE00001283AD100201E4948701E480078742805
:101EF00003D13846FFF704FE2FE01A480078732814
:101F000003D1384600F008FD27E003222FA1154831
:101F1000FEF740FA30B92EA0FEF776F93846FFF703
:101F2000CBFE1AE00A222EA10E48FEF733FA30B992
:101F30002EA0FEF769F9384600F090FF0DE005226B
:101F400031A10848FEF726FA30B931A0FEF75CF956
:101F5000384600F01FFE00E000BF00BF40E7000071
:101F6000160000208000002073756D63616C633A79
:101F700025780A0073756D20636865636B20657250
:101F8000726F0A000E000020257800007265706FE5
:101F90007365204F4B0A00007265706F73652046B1
:101FA00041494C0A00000000E695B0E68DAEE4B869
:101FB0008DE8A2ABE8A7A3E69E90EFBC8CE8AFA6A5
:101FC000E8A781E69687E6A1A35C6E0061646400E1
:101FD0000A616464206465766963650A0000000034
:101FE000636C6561722D7361766500000A636C65D0
:101FF00061722073617665206D616368696E65202A
:10200000646174610A000000636865636B0000002E
:102010000A636865636B206D616368696E6520693A
:102020006E666F0A000000002DE9F04105460026AB
:10203000002700246048007D401E5F4935310A5C5E
:102040005D48007D801E085C02EB002087B25A4884
:10205000007D801E82B2284601F012F80646BE427C
:1020600008D056A0FEF7D0F8584801F001FB012037
:10207000BDE8F081504890F8350001064E4890F8D0
:10208000360001EB00414C4890F8370001EB00218D
:10209000494890F838000C184D484068A04206D0D6
:1020A000601C20B14BA0FEF7AFF80220E0E7284605
:1020B000FFF79AFB4A4988700846807820B949A002
:1020C000FEF7A2F80320D3E74148007800F00100B2
:1020D000002832D13E48C078012803D12846FFF7B6
:1020E000ADF863E03A48C078022803D12846FFF7EC
:1020F00083F95BE03648C078D8B939484078012880
:1021000017D13748807800EBC00101EB001030494F
:1021100001EB400000F112032748007D0A38C2B2EB
:1021200025493D31284600F075FE284600F078F834
:102130003CE032A0FEF768F838E02548007800F06F
:10214000010030B326484078012816D12448807811
:1021500000EBC00101EB00101D4901EB400000F154
:1021600012031548007D0A38C2B213493D31284692
:1021700000F050FE284600F053F80F4890F83D005C
:10218000012807D10C48007D152803D12846FFF708
:10219000D7F90BE0084890F83D00022806D1064820
:1021A000007D0B2802D12846FFF7A4FB0121074838
:1021B00001F02AFA00205BE7E00600200A435243C0
:1021C000204552524F52210A00000000000000201A
:1021D000A00000206E6F74206D696E65210A0000FA
:1021E0000E00002066696E64206D616368696E652B
:1021F000206572726F72210A0000000074686973B2
:10220000206D616368696E65206973206E6F74204C
:10221000626520737570706F727465640A000000E7
:1022200070B5054600240FE02048807800EBC0021E
:1022300002EB00101E4A02EB40001230015D1DA0AF
:10224000FDF7E2FF601CC4B21D48007D0A38A042C1
:10225000EADC1648807800EBC00101EB001014495D
:1022600001EB4000807C06281DD2DFE800F01C0353
:1022700007080C1413A0FDF7C7FF15E014E015A024
:10228000FDF7C2FF10E00221284600F029F8284699
:1022900000F00AFD08E00221284600F021F8284657
:1022A00000F044FE00E000BF00BF70BD0E00002043
:1022B000A0000020646174613A25782000000000CD
:1022C000E00600206E6F207661696C64206F700AF2
:1022D0000000000072656365697665204F4B0A0057
:1022E00070B58AB006460D46202102A8FEF7E5F833
:1022F00025B1012D7DD0022D7CD165E09B488078F1
:1023000000EBC00101EB0010994901EB400040686F
:10231000000E8DF808009548807800EBC00101EBB5
:102320000010934901EB40004068000C8DF8090053
:102330008E48807800EBC00101EB00108C4901EB66
:1023400040008088000A8DF80A008848807800EBF9
:10235000C00101EB0010864901EB400000798DF8C7
:102360000B0008464068000E8DF80C0008464068D7
:10237000000C8DF80D0008468088000A8DF80E00CC
:10238000084600798DF80F0001208DF81000122208
:102390000DF11100FEF72AF8132202A9304600F0D1
:1023A0006FFE044620128DF82300E0B28DF8240061
:1023B000802000231D2202A900906E4801F0C2F87F
:1023C0006DA0FDF721FFCEE06848817873A0FDF78E
:1023D0001BFF6648807800EBC00101EB00106449E8
:1023E00001EB40004068000E8DF808005F488078DF
:1023F00001E056E0B6E000EBC00101EB00105C49E3
:1024000001EB40004068000C8DF8090057488078C7
:1024100000EBC00101EB0010554901EB4000808842
:10242000000A8DF80A005148807800EBC00101EBEA
:1024300000104F4901EB400000798DF80B00084671
:102440004068000E8DF80C0008464068000C8DF8BE
:102450000D0008468088000A8DF80E0008460079B5
:102460008DF80F0003208DF81000092202A93046D4
:1024700000F006FE044620128DF81100E0B28DF83F
:102480001200802000230B2202A90090394801F09D
:1024900059F844A0FDF7B8FE0121364801F0B4F820
:1024A00061E03248807800EBC00101EB0010304958
:1024B00001EB40004068000E8DF808002B48807842
:1024C00000EBC00101EB0010294901EB400040681E
:1024D000000C8DF809002548807800EBC00101EB65
:1024E0000010234901EB40008088000A8DF80A00A3
:1024F0001E48807800EBC00101EB00101C4901EB85
:10250000400000798DF80B0008464068000E8DF8F9
:102510000C0008464068000C8DF80D0008468088C5
:10252000000A8DF80E00084600798DF80F00022091
:102530008DF81000092202A9304600F0A1FD0446E2
:1025400020128DF81100E0B28DF8120080200023D7
:102550000B2202A90090074800F0F4FF1AA0FDF733
:1025600053FE00E000BF00BF0AB070BD0E000020A7
:10257000A000002000000020726573706F6E73650C
:10258000205349474E494E2C746869732069732063
:102590006E6565642041434B0A0000006F703A2568
:1025A00064200A00726573706F6E7365204F4B2C48
:1025B00074686973206973206E6F74206E6565643A
:1025C0002041434B0A000000726573706F6E7365A3
:1025D000205349474E4F55542C74686973206973D2
:1025E000206E6565642041434B0A00002DE9F041EF
:1025F0008AB08046202102A8FDF75FFFA548406809
:10260000000E8DF80C00A3484068000C8DF80D00FA
:10261000A0488088000A8DF80E009E4800798DF849
:102620000F009D48807800EBC00101EB0010994934
:1026300001EB4000406890B9FF208DF808008DF84C
:1026400009008DF80A008DF80B0001208DF81000AC
:1026500012220DF11100FDF7C9FE1B2584E08E4802
:10266000807800EBC00202EB00108A4A02EB4000C7
:1026700041688AA0FDF7C8FD8748807800EBC0015B
:1026800001EB0010834901EB40004068000E8DF81B
:1026900008008148807800EBC00101EB00107D4903
:1026A00001EB40004068000C8DF809007A48807802
:1026B00000EBC00101EB0010764901EB400080887F
:1026C000000A8DF80A007448807800EBC00101EB25
:1026D0000010704901EB400000798DF80B006E4846
:1026E000807800EBC00101EB00106A4901EB40006B
:1026F000406800F07040B0F1005F1AD008464068B2
:1027000000F07040B0F1005F13D004208DF810008D
:102710000124092507E06A48005D02A94855601CAC
:10272000C4B2681CC5B266484078801CA042F2DC86
:1027300012E005208DF810000124092507E060480B
:10274000005D02A94855601CC4B2681CC5B25C4853
:102750008078801CA042F2DCA5F10800C2B204AB74
:1027600004A9404600F056FB2A4602A9404600F064
:1027700087FC07463A122846691CCDB202A90A54C2
:102780002846691CCDB202A90F544EA0FDF73CFDAE
:10279000002406E002A8015D4EA0FDF735FD601C97
:1027A000C4B2AC42F6DB002451E04B48807CA0B9B7
:1027B0004A480068FDF7D0FDFDF7F0FC642190FB6E
:1027C000F1F201FB12000A30C6B2314644A0FDF717
:1027D0001BFD304601F097F837E0802000232A46A1
:1027E00002A90090434800F0ADFE2B488078D8B194
:1027F0002948807800EBC00101EB0010254901EB6E
:10280000400042686421404600F060F900B120E0D9
:10281000384800F02DFF38A0FDF7F6FC1E48007880
:10282000401C1D49087010E06421404600F00AF980
:1028300000B10EE02F4800F01BFF17480078401C45
:10284000154908702CA0FDF7DFFC601CC4B2032CF6
:10285000ABDB00BF032C1AD10F4800780A280FDB2E
:10286000012080F3138800BF00BF2648006800F4F1
:10287000E06025490843001D2249086000BF00BFF1
:1028800001211C4800F0C0FE20A0FDF7BDFC0AB0ED
:10289000BDE8F081A00000200E000020746869737C
:1028A000206D657373616765206D65616E73206966
:1028B000742068617665204453543A25780A0000F4
:1028C00080000020746573742073656E64206461F9
:1028D00074613A0025782000E00600200400002002
:1028E0000A4343415F6465646C61795F6D733A25A7
:1028F000640A0000000000200A6E6F742041434B00
:102900000A0000000CED00E00000FA0553454E44BB
:10291000206661696C0A000010B5044608222BA1EC
:102920002D48FDF737FD48B92C48007820F001000C
:102930002A4908702AA0FDF767FC36E00A222AA17E
:102940002548FDF727FD50B92448007820F0010004
:10295000401C2249087027A0FDF756FC25E00A22FA
:1029600026A11D48FDF716FD30B901201B49C8708E
:1029700025A0FDF749FC18E00B2224A11648FDF71D
:1029800009FD30B902201549C87023A0FDF73CFCB1
:102990000BE00A2222A11048FDF7FCFC28B9002018
:1029A0000E49C87021A0FDF72FFC09220B492148D0
:1029B000FEF7ECF8092209491E48FEF7D2F807484D
:1029C000C1781DA0FDF720FC10BD00007365742DBB
:1029D000686F73740000000080000020A0000020D9
:1029E000484F53540A0000007365742D646576697E
:1029F000636500004445564943450A007365742DDC
:102A00007369676E696E0000494E0A007365742D24
:102A10007369676E6F7574004F55540A00000000AB
:102A20007365742D6E6F726D616C00004E4F524D68
:102A3000414C0A0002FC01087374617475733A25F5
:102A4000780A000070B506460C46002528E01548B7
:102A500000F0B2FE1448807CD0B9134890F83500DD
:102A60000106114890F8360001EB00410E4890F83D
:102A7000370001EB00210C4890F838000D180B4886
:102A80004068A84204D10AA0FDF7BEFB204670BDF5
:102A90000CA0FDF7B9FB601E84B20CB92046F6E726
:102AA000D5E7000000000020E0060020A000002084
:102AB0006974206973206D696E652C41434B204F0A
:102AC0004B0A000077616974000000002DE9F041B5
:102AD00007460C46154600263FE0204800F06CFEF5
:102AE0001F48807C80BB1E4890F8350001061C48BA
:102AF00090F8360001EB0041194890F8370001EBDF
:102B00000021174890F838000E1816484068B04267
:102B10001BD1134890F839000106114890F83A008B
:102B200001EB00410E4890F83B0001EB00210C48FE
:102B300090F83C000E18AE4207D129460AA0FDF7D6
:102B400063FB2046BDE8F081FFE710A0FDF75CFBCA
:102B5000601E84B20CB92046F4E7BEE700000020F6
:102B6000E0060020A00000206974206973206D79C0
:102B700020776169742066726F6D20534E3A257814
:102B8000202C41434B204F4B0A00000077616974B1
:102B90000000000070B505462948018829A0FDF70E
:102BA00033FB002449E004EBC40000EB04102B4984
:102BB00001EB4000406800283DD0214628A0FDF7E9
:102BC00023FB04EBC40000EB0410244A12F81000AD
:102BD00000F0010126A0FDF717FB04EBC40000EB99
:102BE00004101E4A12F81000C0F3420123A0FDF7A2
:102BF0000BFB04EBC40000EB0410184A02EB40008E
:102C00000088010920A0FDF7FFFA04EBC40000EBE7
:102C10000410124A02EB4000C1781EA0FDF7F4FA3E
:102C200004EBC40000EB04100C4A02EB40004168C6
:102C30001BA0FDF7E9FA601CC4B2202CB3DB70BD09
:102C40001800002073617665206D616368696E65A8
:102C5000206E756D3A25640D0A000000A00000206A
:102C6000706F736974696F6E3A2564200A00000002
:102C7000747970653A25780D0A000000736F7274DC
:102C80003A25780D0A00000064657461696C3A2584
:102C9000780D0A007374617475733A25780D0A0013
:102CA000534E3A25780D0A0010B504463948FDF711
:102CB000ABFA3948807800EBC00202EB0010374ACB
:102CC00002EB4000407D00F00F023348807800EBBB
:102CD000C00303EB0010314B03EB4000807D024446
:102CE0002D48807800EBC00303EB00102B4B03EB67
:102CF0004000C07D02442848807800EBC00303EB0D
:102D00000010264B03EB4000007E111824A0FDF7B5
:102D10007BFA2148807800EBC00202EB00101F4ACA
:102D200002EB4000417E22A0FDF76EFA1A4880783F
:102D300000EBC00202EB0010184A02EB4000817E5B
:102D40001FA0FDF761FA1448807800EBC00101EB89
:102D50000010124901EB4000007D012806D0022836
:102D600008D003280AD0042810D10BE019A0FDF7E1
:102D70004BFA0CE01BA0FDF747FA08E01DA0FDF799
:102D800043FA04E01EA0FDF73FFA00E000BF00BFD9
:102D9000002010BD783F00080E000020A000002099
:102DA000E8AEBEE5A48749443A25640A0000000065
:102DB000E58E82E5958649443A25780A00000000B0
:102DC000E8AEBEE5A487E7B1BBE59E8B3A25780A5D
:102DD00000000000E695B0E68DAEE4B88AE68AA56C
:102DE0000A000000E585A5E7BD91E6938DE4BD9C52
:102DF0000A0000004C4544E6938DE4BD9C0A0000A7
:102E0000E8ADA6E58FB7E68EA7E588B6E8AEBEE7E3
:102E1000BDAE0A0070B50446002014E00D4DAD783B
:102E200005EBC50606EB05150B4E06EB450508350B
:102E30002D5C0E7875401D70491C5B1C451CE8B26A
:102E40000A2800D100201500A2F10106F2B2E5D156
:102E500070BD00000E000020A000002070B50546E7
:102E600000201D49088001221C48FDF78FFE4FF409
:102E7000C8611B48FDF7FFFA002411E004EBC4020F
:102E800002EB0412164B03EB420104EBC402134B9A
:102E900003EB4202901C0922FDF778FE601CC4B2CD
:102EA000202CEBDB002411E004EBC40202EB041243
:102EB0000B4B03EB420104EBC402084B03EB420251
:102EC000901C0922FDF74DFE601CC4B2202CEBDBE8
:102ED00004A0FDF799F970BD1800002000FC01085E
:102EE000A0000020636C6561722073617665206DBF
:102EF000616368696E652064617461204F4B0A00EC
:102F000010B504460649897801EBC10202EB0111B4
:102F1000044A02EB410012220349FDF767FA10BD93
:102F20000E000020A00000201E07002070B50546FE
:102F30002A48FDF769F92A48807800EBC00101EBC7
:102F40000010284901EB4000C07C102806D0202842
:102F500035D0212837D0512839D103E022A0FDF700
:102F600053F938E025A0FDF74FF900240CE000BF2D
:102F700080212D48FDF768FF0028F9D000202A495C
:102F8000091D0880601CC4B20A2CF0DB0A2000F086
:102F9000BAFC5520254908705120487001208870DE
:102FA000A720C870AA200871002405E005211F4849
:102FB00000F088FE601CC4B2032CF7DB0BE01CA001
:102FC000FDF722F907E01EA0FDF71EF903E023A09C
:102FD000FDF71AF900BF00BF70BD0000783F000880
:102FE0000E000020A0000020E6B3A8E5868CE5AF27
:102FF00086E7A081E68890E58A9F0A00E697A0E927
:103000009C80E69CACE59CB0E5AF86E7A081E79AA2
:1030100084E8BF9CE7A88BE5BC80E99481E68C87B7
:10302000E4BBA45C6E00000000380140800000207A
:10303000E99D9EE6B395E5BC80E994815C6E000055
:10304000E69CBAE6A2B0E992A5E58C99E5BC80E9D8
:103050009481E68AA5E8ADA65C6E0000E695B0E630
:103060008DAEE4B88DE8A2ABE8A7A3E69E90EFBCD6
:103070008CE8AFA6E8A781E69687E6A1A35C6E0080
:10308000F0B5054600200B4612E013F8016B7040C6
:1030900000240AE000F0010616B14AF2010600E041
:1030A000002686EA6000661CF4B2082CF2DB00BF42
:1030B0001400A2F10106B2B2E7D1F0BD10B504468A
:1030C0000B48006840F0080009490860142000F02F
:1030D0008BFC0748006820F0080005490860084696
:1030E000006840F0100008600F2000F00CFC10BDDC
:1030F0000C08014070B586B00546FF202E49887443
:1031000000F0D2FC284600F0E9F82846FFF7D6FF89
:103110002A49284600F062F8284600F077F9284846
:10312000284A1278815C284600F01AF906212846C0
:1031300000F06AFA04A9284600F02DFB082104A833
:1031400000F0A0FB00BF284600F0FDFA0628FAD1E7
:103150000320002100910B460A46CDE901102846C4
:1031600000F05DF80121184800F04EFA00240EE04E
:10317000284600F0A9F80644642000F0C4FB0020B3
:1031800000F054FC012000F051FC601CC4B2082C7B
:10319000EEDB8621C1EB161000B20C490880084610
:1031A000B0F9000028600846B0F9001008A0FDF74B
:1031B0002BF806B070BD0000E006002080C3C901F6
:1031C0001E00002066000020000000206800002093
:1031D000525353493A25640A000000007CB5054665
:1031E0000C4600200090019002208DF80000012084
:1031F0008DF8010000208DF80200200E8DF80300EC
:10320000200C8DF80400200A8DF80500E0B28DF83E
:10321000060007226946284600F0ACF87CBD2DE97F
:10322000FC4707460D4616461C46DDE90B9ADDF8BD
:103230002880002000900190384600F0C5F93846FB
:1032400000F0D2F932208DF800008DF801508DF891
:10325000026020128DF80300E0B28DF804008DF8B2
:1032600005808DF806908DF807A00822694638463B
:1032700000F080F8BDE8FC8770B50546002600BF69
:103280001048006820F010000E490860442000F04B
:1032900075FCFF2000F072FC04460A48006840F00C
:1032A0001000084908603046711C8EB2B0F57A7F74
:1032B00003D12846FFF71EFF01E0FF2CE0D100BF3D
:1032C00070BD00000C0801403EB50446694620462A
:1032D00000F027FA9DF804003EBD000038B5044612
:1032E00001210C20FDF752FB10208DF80300012076
:1032F0008DF802000820ADF8000069461648FDF779
:103300008CFA48208DF803000420ADF800006946CF
:103310001148FDF782FA4020ADF8000069460F48D9
:10332000FDF77BFA8020ADF8000069460B48FDF7F9
:1033300074FA0120ADF8000069460748FDF76DFA00
:103340000220ADF8000069460348FDF766FA08213F
:103350000148FDF7EDFA38BD00080140000C0140BE
:1033600070B505460C46224642F20121284600F07F
:10337000BDF970BD70B506460C4615463046FFF7E0
:103380007BFF0B48006820F010000949086003E04B
:10339000207800F0F3FB641C2800A5F10101CDB2F8
:1033A000F6D10348006840F010000149086070BD84
:1033B0000C0801402DE9FE4F07460C4615461E46F7
:1033C000DDE90EABDDE90C89002000900190029050
:1033D00013208DF800008DF801408DF802508DF813
:1033E00003608DF804808DF805908DF806A08DF8A7
:1033F00007B0082269463846FFF7BCFF0822694635
:10340000384600F011F9BDE8FE8F00007FB5064692
:10341000002409E0601C84B2324801192A46304673
:10342000FFF7A8FF601984B22E48055D002DF1D189
:10343000002241F20621304600F058F900224FF4F4
:103440009051304600F052F9012241F209213046F4
:1034500000F04CF92A2241F20821304600F046F9EA
:10346000002241F20A21304600F040F9002241F2E8
:103470000D21304600F03AF9012241F20E2130468A
:1034800000F034F9002241F20F21304600F02EF90D
:10349000002241F21021304600F028F9002241F2CA
:1034A0001121304600F022F9402241F2122130462B
:1034B00000F01CF9002241F21321304600F016F909
:1034C000002241F21421304600F010F90020009053
:1034D0000190029003460246014603903046FFF7F2
:1034E00069FF7FBDE43D00082DE9F04106460C462A
:1034F000002500273046FFF7BFFE1148006820F086
:1035000010000F490860772000F038FBFF2000F022
:1035100035FB05462F4604E0FF2000F02FFB04F8A2
:10352000010B2800A5F10101CDB2F5D104480068D6
:1035300040F01000024908603846BDE8F081000004
:103540000C0801402DE9FC4780460D4614461E46F6
:10355000DDF828900020009001902746404600F0BA
:1035600043F81848006820F01000164908606620EB
:1035700000F004FB781CC7B2204600F0FFFA03E01D
:1035800015F8010B00F0FAFA2000A4F10101CCB209
:10359000F6D10C48006840F010000A49086031205C
:1035A0008DF800008DF801608DF8029000208DF8F4
:1035B00003008DF80470052269464046FFF7DAFEE5
:1035C000BDE8FC870C08014038B504460020009097
:1035D00015208DF8000002208DF8010002226946B6
:1035E0002046FFF7C7FE38BD38B5044600200090DE
:1035F00015208DF8000001208DF801000222694697
:103600002046FFF7B7FE38BD38B505460C4600200A
:10361000009034208DF800008DF8014002226946A8
:103620002846FFF7A7FE38BD70B506460C4615467E
:103630003046FFF721FE0D48006820F010000B49CE
:103640000860442000F09AFA04E0FF2000F096FAA7
:103650002070641C2800A5F10101CDB2F5D103480A
:10366000006840F010000149086070BD0C0801407E
:103670003EB504462046FFF721FD18492046FFF7D6
:10368000ADFD2046FFF7C2FE1548164A1278815C50
:103690002046FFF765FE06212046FFF7B5FF08E04C
:1036A000142000F030F9002000F0C0F9012000F0F3
:1036B000BDF9204600F047F80628F1D1032000218B
:1036C00000910B460A46CDE901102046FFF7A7FD01
:1036D00001210548FFF798FF3EBD000080C3C901E6
:1036E0001E00002066000020000000207CB5064679
:1036F0000C46154600200090019011208DF8000026
:1037000020128DF8010001208DF80200E0B28DF842
:1037100003008DF80450052269463046FFF72AFE63
:103720007CBD38B504460D46002000902220009054
:10373000012269462046FFF71DFE09222946204640
:10374000FFF772FF38BD38B50446002000903320E3
:103750008DF80000012269462046FFF70BFE032288
:1037600069462046FFF760FF9DF8010000F00F005A
:1037700038BD38B504460D46002000902120009049
:10378000012269462046FFF7F5FD0322294620461F
:10379000FFF74AFF38BD38B504460D4601200090BA
:1037A000012269462046FFF7E5FD0822294620460A
:1037B000FFF73AFF38BD00003EB5044629480168CE
:1037C0000420884380B328492848FFF7D2FF2648C1
:1037D000807800F01000102843D1002024490860B0
:1037E000214935312148FFF77FFE1F4908750846FA
:1037F000007D38B10846017D353000F061F80020C9
:103800001949887406211948FFF7FEFE052000F0CB
:103810007AF80320002100910B460A46CDE90110F9
:103820001248FFF7FCFC1CE0FFE711480068401C51
:103830000F490860084600680E49884211D30120EC
:1038400080F3138800BF00BF0B48006800F4E060FD
:103850000A490843001D0849086000BF00200449C8
:1038600008603EBD08080140E0060020000000207E
:1038700004000020DAFF25000CED00E00000FA054E
:1038800000BF704770B504460D460BE000BF8021B5
:103890000948FDF7D9FA0028F9D020780649091D12
:1038A0000880641C2800A5F10101CDB2EED103A06F
:1038B000FCF7AAFC70BD0000004800400A000000B0
:1038C00070B504460D4604E0217806A0FCF79CFC88
:1038D000641C2800A5F10101CDB2F5D102A0FCF7CE
:1038E00093FC70BD257820000A00000008B5002078
:1038F0000090FF20009002E00098401E0090009889
:103900000028F9D108BD00EB4001C1EBC0114FF612
:10391000FF7202EAC1014FF080429185002191843B
:103920001146098841F00101118000BF4FF080412C
:10393000098A01F001010029F8D04FF08041098A7D
:1039400021F001014FF0804211821146098821F0D7
:10395000010111807047000000B589B001A8FDF792
:1039600035F801210846FCF7F1FF0020ADF81E00F4
:10397000ADF81A00FF20ADF81C0000208DF82000E3
:1039800018490498B0FBF1F0401E80B2ADF8180061
:1039900006A94FF08040FDF7DFF901218807FDF708
:1039A000C1F900214FF08040FDF7D4F901218807CB
:1039B000FDF7BBF900BF01218807FDF7C2F9002818
:1039C000F9D000214FF08040FDF7AFF900214FF012
:1039D0008040FDF7BFF901218807FDF7A3F909B081
:1039E00000BD000040420F004FF08041888500215B
:1039F0004FF0804291841146098841F00101118005
:103A000000BF4FF08041098A01F001010029F8D080
:103A10004FF08041098A21F001014FF0804211826C
:103A20001146098821F001011180704730B907491A
:103A3000096881F48051054A116005E00449C968AC
:103A400081F40051024AD160704700000C0C014023
:103A50000010014008B501211820FCF797FF102045
:103A60008DF8030002208DF80200C002ADF80000BE
:103A700069460B48FCF7D1FE4FF480510848FCF72B
:103A800059FF4FF40050ADF8000069460548FCF7B7
:103A9000C4FE4FF400510348FCF74CFF08BD000082
:103AA000000C01400010014000B587B00121042046
:103AB000FCF76CFF01208DF81A0018208DF81B0010
:103AC0002020ADF8180006A92A48FCF7A6FE8020A1
:103AD000ADF8180006A92748FCF79FFE802125486D
:103AE000FCF728FF4020ADF8180006A92148FCF794
:103AF00094FE40211F48FCF71DFF10208DF81B008D
:103B0000ADF8180006A91B48FCF787FE10211948DC
:103B1000FCF710FF1848FCF7CFFF01210803FCF762
:103B200035FF00211448FCF7BBFF0020ADF804006E
:103B30004FF48270ADF806000020ADF80A00ADF831
:103B40000C00ADF808004FF40070ADF80E0028200E
:103B5000ADF810000020ADF812000720ADF81400F9
:103B600001A90548FCF7DFFF01210348FCF798FF96
:103B700007B000BD000801400030014070B50446A8
:103B80000026002507E0681C80B205464FF6FF714D
:103B9000884200D105E002210F48FCF7BBFF002856
:103BA000F1D000BF47F6FF750B48848107E0681C21
:103BB00080B205464FF6FF71884200D105E0012131
:103BC0000548FCF7A7FF0028F1D000BF0248808914
:103BD000C6B2304670BD00000030014010B586B05E
:103BE000044600214FF48000FCF7B0FE012144F2AE
:103BF0000D00FCF7CBFE18208DF8170002208DF881
:103C000016000002ADF8140005A92948FCF705FECE
:103C10004FF48060ADF8140005A92648FCF7FDFDBF
:103C200004208DF817000002ADF8140005A9204803
:103C3000FCF7F3FD4FF40060ADF8140005A91D4832
:103C4000FCF7EBFD01218804FCF780FE1A48FDF724
:103C5000ADF81A48FDF7AAF801940020ADF810005D
:103C60000C20ADF80E000020ADF80C00ADF80A00F5
:103C7000ADF8080000211048FDF78CF801A90E48A6
:103C8000FDF7ECF801210C48FDF784F800210B4802
:103C9000FDF780F801A90948FDF7E0F80121074880
:103CA000FDF778F800200649487006B010BD000006
:103CB00000080140000C014000380140004800406D
:103CC0001600002070B504460D460BE000BF8021B1
:103CD0000748FDF7B9F80028F9D020780449091DF4
:103CE0000880641C2800A5F10101CDB2EED170BDA1
:103CF0000038014000BF054A128802F04002002A45
:103D0000F9D0C2B2014B1B1D1A8070470048004019
:103D1000FDF7FCF801E0FDF7EFF8FCE710B5202116
:103D20002B48FDF791F8E8B12948001D0088C4B27E
:103D3000284829490978445400BF80212448FDF7C8
:103D400083F80028F9D02248001D0480224800781A
:103D5000401C214908700A2C04D100200870012061
:103D60001E49487020211E48FDF76EF878B31C48A4
:103D7000001D0088C4B2174817490978445400BF91
:103D800080211348FDF760F80028F9D01048001D85
:103D9000048011480078401C0F4908700F480078D3
:103DA000012801D1AA2C08D100200A49487001201D
:103DB0000A490870002008490870064841780648FA
:103DC0000078801E814202D102200449087010BD93
:103DD00000480040800000200C0000201600002059
:103DE000003801400702010001C9C3800813000028
:103DF0000000000000061100020052000511000141
:103E000003600611010200013008110204000000E5
:103E100000000D111009000814000F31000000000F
:103E2000091111050001B42B00000B1112070080CD
:103E30000108FFFF00021011120C080000003030D2
:103E4000000704000000001011120C140000000014
:103E500000000000000000001011120C2000000003
:103E60000000000000000000000D1112092C0000ED
:103E7000000000000000001011200C0003000706E5
:103E80001A8005C9C3800005051120010C760C11AC
:103E900020081801800803800020200D112009222D
:103EA0000177015D8600AF02C20B1120072C04369A
:103EB000801D1004800511200135E20D1120093804
:103EC000115252001AFFFF002A0D11200942A402CC
:103ED000D68300AD0180FF051120014C00051120A3
:103EE000014E4005112001510A1011210C00A28140
:103EF00026AF3FEEC8C7DBF202081011210C0C07F9
:103F00000315FC0F00A28126AF3FEE1011210C1803
:103F1000C8C7DBF20208070315FC0F0008112204D2
:103F200000087F003D0B112307002C0E0B040C73BF
:103F3000031011300C000000000000000000000021
:103F400000000C11400800380AAAAA444420FE00D0
:103F500030313233343536373839414243444546BF
:103F600040305800303132333435363738396162B9
:103F700063646566403078000A2D2D2D2D2D2D2D82
:103F80002D2D2D2D2D2D2D2D2D2D2D2D2D2D2D2D61
:103F90002DE695B0E68DAEE8A7A3E69E902D2D2DDB
:103FA0002D2D2D2D2D2D2D2D2D2D2D2D2D2D2D2D41
:103FB0002D2D2D2D2D2D2D2D2D2D0A00DC3F000812
:103FC0000000002080000000280100085C4000087C
:103FD00080000020000E00004401000800000000E6
:103FE00000000000000000000000000000000000D1
:103FF000000000000000000000007F140A07040316
:104000000201323064626D000000313064626D0084
:1040100000003564626D000000003064626D0000D5
:1040200000002D313064626D00002D313564626D09
:1040300000002D323064626D00002D333064626DFB
:104040000000000000000000000001020304010263
:0C4050000304060708090204060800002B
:04000005080000ED02
:00000001FF
